{
  "description": "Build a block containing one EIP-1559 ETH transfer. Sender 0xfe3b557e (funded with ~12.5 ETH in genesis) sends 1000 wei to 0x627306090a. The transaction is included: gasUsed=21000 (0x5208), nonce=0, maxFeePerGas=0x10 (> genesis baseFee 0x7), chainId=3503995874084926.",
  "request": {
    "jsonrpc": "2.0",
    "method": "testing_buildBlockV1",
    "params": [
      {
        "parentBlockHash": "0x937c8f382f4945fc6122652239426484d97b400d66c122aea45f2dd4a8afeab6",
        "payloadAttributes": {
          "timestamp": "0x1",
          "slotNumber": "0x2a",
          "prevRandao": "0x0000000000000000000000000000000000000000000000000000000000000000",
          "suggestedFeeRecipient": "0x0000000000000000000000000000000000000000",
          "withdrawals": [],
          "parentBeaconBlockRoot": "0x0000000000000000000000000000000000000000000000000000000000000000"
        },
        "transactions": [
          "0x02f86b870c72dd9d5e883e80801082520894627306090abab3a6e1400e9345bc60c78a8bef578203e880c080a087b5ee5be96494e587c6f97c5fdb819c798cf7c5f4fad99ab1c365133c1b2feaa05a1bd572f15f968195d8a7afa535a04897a43f98f005ad581c92503fef4c6b1a"
        ]
      }
    ],
    "id": 7
  },
  "response": {
    "jsonrpc": "2.0",
    "id": 7,
    "result": {
      "executionPayload": {
        "parentHash": "0x937c8f382f4945fc6122652239426484d97b400d66c122aea45f2dd4a8afeab6",
        "feeRecipient": "0x0000000000000000000000000000000000000000",
        "stateRoot": "0x6dfe5615c5bfa96c38d4c19c32f4ee7a80c96b039794e1401a649416b99d1e5c",
        "receiptsRoot": "0x6d3683d8764c1015a7d49cf3e3d4c295074cb7855dddb9324863bf59ffdda8b8",
        "logsBloom": "0x00000000000000000000000000000000000000000000000000000000000000000000000000000000000000000000000000000000000000080000020000000000000000000000000010000008000000000000000000000000000000000000000000000000000000002000000000000000000000000000000000000010000000000000000000000000000000000000000000000000000000000000010000000002000000000000000000000000000000000000000000000000000000000000000000000002000000000208000000000000000000000000000000000000000000400000000000000000000000000000000000000000000000000000000000000000",
        "prevRandao": "0x0000000000000000000000000000000000000000000000000000000000000000",
        "gasLimit": "0x47e7c40",
        "gasUsed": "0x5208",
        "timestamp": "0x1",
        "extraData": "0x",
        "baseFeePerGas": "0x7",
        "excessBlobGas": "0x0",
        "blobGasUsed": "0x0",
        "blockAccessList": "0xf90116da940000000000000000000000000000000000000000c0c0c0c0c0de9400000961ef480eb55e80d19ad83579a64c007002c0c480010203c0c0c0de940000bbddc7ce488642fb579f8b00f3a590007251c0c480010203c0c0c0f840940000f90827f1c53a10cb7a02335b175320002935e6e580e3e280a0937c8f382f4945fc6122652239426484d97b400d66c122aea45f2dd4a8afeab6c0c0c0c0e394000f3df6d732807ef1319fb7b8bb8522d0beac02c6c501c3c28001c3822000c0c0c0ec94627306090abab3a6e1400e9345bc60c78a8bef57c0c0d2d1018fc097ce7bc90715b34b9f10000003e8c0c0e994fe3b557e8fb62b89f4916b721be55ceb828dbd73c0c0cccb01890ad78ebc5ac61dbde0c3c20101c0",
        "slotNumber": "0x2a",
        "transactions": [
          "0x02f86b870c72dd9d5e883e80801082520894627306090abab3a6e1400e9345bc60c78a8bef578203e880c080a087b5ee5be96494e587c6f97c5fdb819c798cf7c5f4fad99ab1c365133c1b2feaa05a1bd572f15f968195d8a7afa535a04897a43f98f005ad581c92503fef4c6b1a"
        ],
        "withdrawals": [],
        "blockNumber": "0x1",
        "blockHash": "0x4982fbd45800a9a6aa767edaec0922eaf0b72d4d820bb16bff13d6f49f95b62d"
      },
      "blockValue": "0x0",
      "blobsBundle": {
        "commitments": [],
        "proofs": [],
        "blobs": []
      },
      "shouldOverrideBuilder": false,
      "executionRequests": []
    }
  },
  "statusCode": 200
}
