{
  "type": "BlockHeadersPacket66",
  "rlp": "0xf90202820457f901fcf901f9a00000000000000000000000000000000000000000000000000000000000000000a00000000000000000000000000000000000000000000000000000000000000000940000000000000000000000000000000000000000a00000000000000000000000000000000000000000000000000000000000000000a00000000000000000000000000000000000000000000000000000000000000000a00000000000000000000000000000000000000000000000000000000000000000b90100000000000000000000000000000000000000000000000000000000000000000000000000000000000000000000000000000000000000000000000000000000000000000000000000000000000000000000000000000000000000000000000000000000000000000000000000000000000000000000000000000000000000000000000000000000000000000000000000000000000000000000000000000000000000000000000000000000000000000000000000000000000000000000000000000000000000000000000000000000000000000000000000000000000000000000000000000000000000000000000000000000000000000000000000000000008208ae820d0582115c8215b3821a0a827788a00000000000000000000000000000000000000000000000000000000000000000880000000000000000",
  "data": {
    "RequestId": 1111,
    "BlockHeadersPacket": [
      {
        "parentHash": "0x0000000000000000000000000000000000000000000000000000000000000000",
        "sha3Uncles": "0x0000000000000000000000000000000000000000000000000000000000000000",
        "miner": "0x0000000000000000000000000000000000000000",
        "stateRoot": "0x0000000000000000000000000000000000000000000000000000000000000000",
        "transactionsRoot": "0x0000000000000000000000000000000000000000000000000000000000000000",
        "receiptsRoot": "0x0000000000000000000000000000000000000000000000000000000000000000",
        "logsBloom": "0x00000000000000000000000000000000000000000000000000000000000000000000000000000000000000000000000000000000000000000000000000000000000000000000000000000000000000000000000000000000000000000000000000000000000000000000000000000000000000000000000000000000000000000000000000000000000000000000000000000000000000000000000000000000000000000000000000000000000000000000000000000000000000000000000000000000000000000000000000000000000000000000000000000000000000000000000000000000000000000000000000000000000000000000000000000000",
        "difficulty": "0x8ae",
        "number": "0xd05",
        "gasLimit": "0x115c",
        "gasUsed": "0x15b3",
        "timestamp": "0x1a0a",
        "extraData": "0x7788",
        "mixHash": "0x0000000000000000000000000000000000000000000000000000000000000000",
        "nonce": "0x0000000000000000",
        "hash": "0x8c2f2af15b7b563b6ab1e09bed0e9caade7ed730aec98b70a993597a797579a9"
      }
    ]
  }
}