{
  "type": "BlockBodiesPacket66",
  "rlp": "0xf902dc820457f902d6f902d3f8d2f867088504a817c8088302e2489435353535353535353535353535353535353535358202008025a064b1702d9298fee62dfeccc57d322a463ad55ca201256d01f62b45b2e1c21c12a064b1702d9298fee62dfeccc57d322a463ad55ca201256d01f62b45b2e1c21c10f867098504a817c809830334509435353535353535353535353535353535353535358202d98025a052f8f61201b2b11a78d6e866abc9c3db2ae8631fa656bfe5cb53668255367afba052f8f61201b2b11a78d6e866abc9c3db2ae8631fa656bfe5cb53668255367afbf901fcf901f9a00000000000000000000000000000000000000000000000000000000000000000a00000000000000000000000000000000000000000000000000000000000000000940000000000000000000000000000000000000000a00000000000000000000000000000000000000000000000000000000000000000a00000000000000000000000000000000000000000000000000000000000000000a00000000000000000000000000000000000000000000000000000000000000000b90100000000000000000000000000000000000000000000000000000000000000000000000000000000000000000000000000000000000000000000000000000000000000000000000000000000000000000000000000000000000000000000000000000000000000000000000000000000000000000000000000000000000000000000000000000000000000000000000000000000000000000000000000000000000000000000000000000000000000000000000000000000000000000000000000000000000000000000000000000000000000000000000000000000000000000000000000000000000000000000000000000000000000000000000000000000008208ae820d0582115c8215b3821a0a827788a00000000000000000000000000000000000000000000000000000000000000000880000000000000000",
  "data": {
    "RequestId": 1111,
    "BlockBodiesPacket": [
      {
        "Transactions": [
          {
            "nonce": "0x8",
            "gasPrice": "0x4a817c808",
            "gas": "0x2e248",
            "to": "0x3535353535353535353535353535353535353535",
            "value": "0x200",
            "input": "0x",
            "v": "0x25",
            "r": "0x64b1702d9298fee62dfeccc57d322a463ad55ca201256d01f62b45b2e1c21c12",
            "s": "0x64b1702d9298fee62dfeccc57d322a463ad55ca201256d01f62b45b2e1c21c10",
            "hash": "0x588df025c4c2d757d3e314bd3dfbfe352687324e6b8557ad1731585e96928aed"
          },
          {
            "nonce": "0x9",
            "gasPrice": "0x4a817c809",
            "gas": "0x33450",
            "to": "0x3535353535353535353535353535353535353535",
            "value": "0x2d9",
            "input": "0x",
            "v": "0x25",
            "r": "0x52f8f61201b2b11a78d6e866abc9c3db2ae8631fa656bfe5cb53668255367afb",
            "s": "0x52f8f61201b2b11a78d6e866abc9c3db2ae8631fa656bfe5cb53668255367afb",
            "hash": "0xf39c7dac06a9f3abf09faf5e30439a349d3717611b3ed337cd52b0d192bc72da"
          }
        ],
        "Uncles": [
          {
            "parentHash": "0x0000000000000000000000000000000000000000000000000000000000000000",
            "sha3Uncles": "0x0000000000000000000000000000000000000000000000000000000000000000",
            "miner": "0x0000000000000000000000000000000000000000",
            "stateRoot": "0x0000000000000000000000000000000000000000000000000000000000000000",
            "transactionsRoot": "0x0000000000000000000000000000000000000000000000000000000000000000",
            "receiptsRoot": "0x0000000000000000000000000000000000000000000000000000000000000000",
            "logsBloom": "0x00000000000000000000000000000000000000000000000000000000000000000000000000000000000000000000000000000000000000000000000000000000000000000000000000000000000000000000000000000000000000000000000000000000000000000000000000000000000000000000000000000000000000000000000000000000000000000000000000000000000000000000000000000000000000000000000000000000000000000000000000000000000000000000000000000000000000000000000000000000000000000000000000000000000000000000000000000000000000000000000000000000000000000000000000000000",
            "difficulty": "0x8ae",
            "number": "0xd05",
            "gasLimit": "0x115c",
            "gasUsed": "0x15b3",
            "timestamp": "0x1a0a",
            "extraData": "0x7788",
            "mixHash": "0x0000000000000000000000000000000000000000000000000000000000000000",
            "nonce": "0x0000000000000000",
            "hash": "0x8c2f2af15b7b563b6ab1e09bed0e9caade7ed730aec98b70a993597a797579a9"
          }
        ]
      }
    ]
  }
}