{
  "type": "PooledTransactionsPacket66",
  "rlp": "0xf8d7820457f8d2f867088504a817c8088302e2489435353535353535353535353535353535353535358202008025a064b1702d9298fee62dfeccc57d322a463ad55ca201256d01f62b45b2e1c21c12a064b1702d9298fee62dfeccc57d322a463ad55ca201256d01f62b45b2e1c21c10f867098504a817c809830334509435353535353535353535353535353535353535358202d98025a052f8f61201b2b11a78d6e866abc9c3db2ae8631fa656bfe5cb53668255367afba052f8f61201b2b11a78d6e866abc9c3db2ae8631fa656bfe5cb53668255367afb",
  "data": {
    "RequestId": 1111,
    "PooledTransactionsPacket": [
      {
        "nonce": "0x8",
        "gasPrice": "0x4a817c808",
        "gas": "0x2e248",
        "to": "0x3535353535353535353535353535353535353535",
        "value": "0x200",
        "input": "0x",
        "v": "0x25",
        "r": "0x64b1702d9298fee62dfeccc57d322a463ad55ca201256d01f62b45b2e1c21c12",
        "s": "0x64b1702d9298fee62dfeccc57d322a463ad55ca201256d01f62b45b2e1c21c10",
        "hash": "0x588df025c4c2d757d3e314bd3dfbfe352687324e6b8557ad1731585e96928aed"
      },
      {
        "nonce": "0x9",
        "gasPrice": "0x4a817c809",
        "gas": "0x33450",
        "to": "0x3535353535353535353535353535353535353535",
        "value": "0x2d9",
        "input": "0x",
        "v": "0x25",
        "r": "0x52f8f61201b2b11a78d6e866abc9c3db2ae8631fa656bfe5cb53668255367afb",
        "s": "0x52f8f61201b2b11a78d6e866abc9c3db2ae8631fa656bfe5cb53668255367afb",
        "hash": "0xf39c7dac06a9f3abf09faf5e30439a349d3717611b3ed337cd52b0d192bc72da"
      }
    ]
  }
}