{
  "cli": [
    "t8n",
    "--input.alloc=stdin",
    "--input.txs=stdin",
    "--input.env=stdin",
    "--output.result=stdout",
    "--output.alloc=stdout",
    "--output.body=stdout",
    "--state.fork=London",
    "--state.chainid=1",
    "--state.reward=0"
  ],
  "stdin": {
    "alloc": {
      "0x1000000000000000000000000000000000000000": {
        "nonce": "0x00",
        "balance": "0x0ba1a9ce0ba1a9ce",
        "code": "0x6010565b6000828201905092915050565b601a600260016003565b60005560206000f3",
        "storage": {}
      },
      "0xa94f5374fce5edbc8e2a8697c15331677e6ebf0b": {
        "nonce": "0x00",
        "balance": "0x0ba1a9ce0ba1a9ce",
        "code": "0x",
        "storage": {}
      }
    },
    "txs": [
      {
        "type": "0x0",
        "chainId": "0x0",
        "nonce": "0x0",
        "gasPrice": "0xa",
        "gas": "0x7a120",
        "value": "0x0",
        "input": "0x",
        "to": "0x1000000000000000000000000000000000000000",
        "protected": false,
        "secretKey": "0x45a915e4d060149eb4365960e6a7a45f334393093061116b197e3240065ff2d8",
        "v": "0x0",
        "r": "0x0",
        "s": "0x0"
      }
    ],
    "env": {
      "currentCoinbase": "0x0000000000000000000000000000000000000000",
      "currentNumber": "0x1",
      "currentTimestamp": "0x0",
      "currentGasLimit": "0xff112233445566",
      "currentStateRoot": "0x5775e461ac316f8c02466d23e4492d24bbe546336f6fc632dd1311d6a5b67b22",
      "previousHash": "0xb271e9e5796d0ff5a2fd519ba666393e42d4f38680854761121d84a7a96ff017",
      "parentTimestamp": "0x00",
      "parentDifficulty": "0x00",
      "parentUncleHash": "0x1dcc4de8dec75d7aab85b567b6ccd41ad312451b948a7413f0a142fd40d49347",
      "currentRandom": "0x0000000000000000000000000000000000000000000000000000000000020000",
      "parentBaseFee": "0x0b",
      "parentGasUsed": "0x00",
      "parentGasLimit": "0xff112233445566",
      "blockHashes": {
        "0": "0xb271e9e5796d0ff5a2fd519ba666393e42d4f38680854761121d84a7a96ff017"
      },
      "currentDifficulty": "0x0"
    }
  },
  "stdout": {
    "alloc": {
      "0x1000000000000000000000000000000000000000": {
        "code": "0x6010565b6000828201905092915050565b601a600260016003565b60005560206000f3",
        "storage": {
          "0x0000000000000000000000000000000000000000000000000000000000000000": "0x0000000000000000000000000000000000000000000000000000000000000003"
        },
        "balance": "0xba1a9ce0ba1a9ce"
      },
      "0xa94f5374fce5edbc8e2a8697c15331677e6ebf0b": {
        "balance": "0xba1a9ce0b9b130c",
        "nonce": "0x1"
      }
    },
    "body": "0xf862f860800a8307a12094100000000000000000000000000000000000000080801ca091df80a63242846dcf1cc16c35e6ba39212cde92aad946f9c286fa0029782b54a0446170c2fb714c717885485ea7d93bf9277f3fb3d89ffd73e9b7f5f8eda3997b",
    "result": {
      "stateRoot": "0x5775e461ac316f8c02466d23e4492d24bbe546336f6fc632dd1311d6a5b67b22",
      "txRoot": "0x8e987be72f36f97a98838e03d9e5d1b3d22795606240f16684532b1c994b4ee7",
      "receiptsRoot": "0x0812e2d0238699cad1dd4c1274804ed2dde9a35df8ee002d48bbf3ef87857a63",
      "logsHash": "0x1dcc4de8dec75d7aab85b567b6ccd41ad312451b948a7413f0a142fd40d49347",
      "logsBloom": "0x00000000000000000000000000000000000000000000000000000000000000000000000000000000000000000000000000000000000000000000000000000000000000000000000000000000000000000000000000000000000000000000000000000000000000000000000000000000000000000000000000000000000000000000000000000000000000000000000000000000000000000000000000000000000000000000000000000000000000000000000000000000000000000000000000000000000000000000000000000000000000000000000000000000000000000000000000000000000000000000000000000000000000000000000000000000",
      "receipts": [
        {
          "root": "0x",
          "status": "0x1",
          "cumulativeGasUsed": "0xa8ad",
          "logsBloom": "0x00000000000000000000000000000000000000000000000000000000000000000000000000000000000000000000000000000000000000000000000000000000000000000000000000000000000000000000000000000000000000000000000000000000000000000000000000000000000000000000000000000000000000000000000000000000000000000000000000000000000000000000000000000000000000000000000000000000000000000000000000000000000000000000000000000000000000000000000000000000000000000000000000000000000000000000000000000000000000000000000000000000000000000000000000000000",
          "logs": null,
          "transactionHash": "0x6c4a22ee7d2d9ae9307b09aac69a34600978e34313088917a7e69fd12e8f959a",
          "contractAddress": "0x0000000000000000000000000000000000000000",
          "gasUsed": "0xa8ad",
          "blockHash": "0x0000000000000000000000000000000000000000000000000000000000000000",
          "transactionIndex": "0x0"
        }
      ],
      "currentDifficulty": null,
      "gasUsed": "0xa8ad",
      "currentBaseFee": "0xa"
    }
  }
}
