{
  "cli": [
    "t8n",
    "--input.alloc=stdin",
    "--input.txs=stdin",
    "--input.env=stdin",
    "--output.result=stdout",
    "--output.alloc=stdout",
    "--output.body=stdout",
    "--state.fork=Shanghai",
    "--state.chainid=1",
    "--state.reward=0"
  ],
  "stdin": {
    "alloc": {
      "0x1000000000000000000000000000000000000000": {
        "nonce": "0x00",
        "balance": "0x0ba1a9ce0ba1a9ce",
        "code": "0x600040600055600140600155434060025500",
        "storage": {}
      },
      "0xa94f5374fce5edbc8e2a8697c15331677e6ebf0b": {
        "balance": "0x1319ad251a00",
        "storage": {}
      }
    },
    "txs": [
      {
        "type": "0x0",
        "chainId": "0x0",
        "nonce": "0x0",
        "gasPrice": "0xa",
        "gas": "0x7a120",
        "value": "0x0",
        "input": "0x",
        "to": "0x1000000000000000000000000000000000000000",
        "protected": false,
        "secretKey": "0x45a915e4d060149eb4365960e6a7a45f334393093061116b197e3240065ff2d8",
        "v": "0x0",
        "r": "0x0",
        "s": "0x0"
      }
    ],
    "env": {
      "currentCoinbase": "0x2adc25665018aa1fe0e6bc666dac8fc2697ff9ba",
      "currentGasLimit": "100000000000000000",
      "currentNumber": "257",
      "currentTimestamp": "24",
      "currentRandom": "0",
      "currentDifficulty": "0",
      "currentStateRoot": "0x89412c0f1bb31b983d0317e6e2801a4e604e1ef9987a132ab63c52f2d5a3994b",
      "parentDifficulty": "0",
      "parentGasUsed": "0",
      "parentGasLimit": "100000000000000000",
      "parentTimestamp": "12",
      "blockHashes": {
        "0": "0x651666d6d8727a6478a750dc8406c1bda0be85abc99094dca694807fa772f83c",
        "1": "0x0275fc82fe832100726ec7c26078ffb1c1dbff14a3b52d93dc359768fc8c7baa",
        "257": "0x0275fc82fe832100726ec7c26078ffb1c1dbff14a3b52d93dc359768fc8c7baa"
      },
      "ommers": [],
      "withdrawals": [],
      "parentUncleHash": "0x1dcc4de8dec75d7aab85b567b6ccd41ad312451b948a7413f0a142fd40d49347",
      "currentBaseFee": "7"
    }
  },
  "stdout": {
    "alloc": {
      "0x1000000000000000000000000000000000000000": {
        "code": "0x600040600055600140600155434060025500",
        "storage": {
          "0x0000000000000000000000000000000000000000000000000000000000000001": "0x0275fc82fe832100726ec7c26078ffb1c1dbff14a3b52d93dc359768fc8c7baa"
        },
        "balance": "0xba1a9ce0ba1a9ce"
      },
      "0x2adc25665018aa1fe0e6bc666dac8fc2697ff9ba": {
        "balance": "0x22d8b"
      },
      "0xa94f5374fce5edbc8e2a8697c15331677e6ebf0b": {
        "balance": "0x1319ad1dd786",
        "nonce": "0x1"
      }
    },
    "body": "0xf862f860800a8307a12094100000000000000000000000000000000000000080801ca091df80a63242846dcf1cc16c35e6ba39212cde92aad946f9c286fa0029782b54a0446170c2fb714c717885485ea7d93bf9277f3fb3d89ffd73e9b7f5f8eda3997b",
    "result": {
      "stateRoot": "0x5538cf875e8e464ff08398cd8ab7cb03281e8264da450d471bcf67a4db2a9122",
      "txRoot": "0x8e987be72f36f97a98838e03d9e5d1b3d22795606240f16684532b1c994b4ee7",
      "receiptsRoot": "0xb5c544c869a9a9de6177db6d326610105f678fc1add50ad05f3e2384655268e9",
      "logsHash": "0x1dcc4de8dec75d7aab85b567b6ccd41ad312451b948a7413f0a142fd40d49347",
      "logsBloom": "0x00000000000000000000000000000000000000000000000000000000000000000000000000000000000000000000000000000000000000000000000000000000000000000000000000000000000000000000000000000000000000000000000000000000000000000000000000000000000000000000000000000000000000000000000000000000000000000000000000000000000000000000000000000000000000000000000000000000000000000000000000000000000000000000000000000000000000000000000000000000000000000000000000000000000000000000000000000000000000000000000000000000000000000000000000000000",
      "receipts": [
        {
          "root": "0x",
          "status": "0x1",
          "cumulativeGasUsed": "0xb9d9",
          "logsBloom": "0x00000000000000000000000000000000000000000000000000000000000000000000000000000000000000000000000000000000000000000000000000000000000000000000000000000000000000000000000000000000000000000000000000000000000000000000000000000000000000000000000000000000000000000000000000000000000000000000000000000000000000000000000000000000000000000000000000000000000000000000000000000000000000000000000000000000000000000000000000000000000000000000000000000000000000000000000000000000000000000000000000000000000000000000000000000000",
          "logs": null,
          "transactionHash": "0x6c4a22ee7d2d9ae9307b09aac69a34600978e34313088917a7e69fd12e8f959a",
          "contractAddress": "0x0000000000000000000000000000000000000000",
          "gasUsed": "0xb9d9",
          "blockHash": "0x0000000000000000000000000000000000000000000000000000000000000000",
          "transactionIndex": "0x0"
        }
      ],
      "currentDifficulty": null,
      "gasUsed": "0xb9d9",
      "currentBaseFee": "0x7",
      "withdrawalsRoot": "0x56e81f171bcc55a6ff8345e692c0f86e5b48e01b996cadc001622fb5e363b421"
    }
  }
}
