{
  "cli": [
    "t8n",
    "--input.alloc=stdin",
    "--input.txs=stdin",
    "--input.env=stdin",
    "--output.result=stdout",
    "--output.alloc=stdout",
    "--output.body=stdout",
    "--state.fork=Shanghai",
    "--state.chainid=1",
    "--state.reward=0"
  ],
  "stdin": {
    "alloc": {
      "0xa94f5374fce5edbc8e2a8697c15331677e6ebf0b": {
        "balance": "0x1319ad251a00",
        "storage": {}
      }
    },
    "txs": [
      {
        "type": "0x0",
        "chainId": "0x1",
        "nonce": "0x0",
        "gasPrice": "0x3b9aca00",
        "gas": "0x5208",
        "value": "0x0",
        "input": "0x",
        "to": "0x0000000000000000000000000000000000000100",
        "protected": true,
        "secretKey": "0x45a915e4d060149eb4365960e6a7a45f334393093061116b197e3240065ff2d8",
        "v": "0x0",
        "r": "0x0",
        "s": "0x0"
      }
    ],
    "env": {
      "currentCoinbase": "0x2adc25665018aa1fe0e6bc666dac8fc2697ff9ba",
      "currentGasLimit": "100000000000000000",
      "currentNumber": "2",
      "currentTimestamp": "24",
      "currentRandom": "0",
      "currentDifficulty": "0",
      "parentDifficulty": "0",
      "parentGasUsed": "0",
      "parentGasLimit": "100000000000000000",
      "parentTimstamp": "12",
      "blockHashes": {
        "0": "0x651666d6d8727a6478a750dc8406c1bda0be85abc99094dca694807fa772f83c",
        "1": "0x0275fc82fe832100726ec7c26078ffb1c1dbff14a3b52d93dc359768fc8c7baa"
      },
      "ommers": [],
      "withdrawals": [],
      "parentUncleHash": "0x1dcc4de8dec75d7aab85b567b6ccd41ad312451b948a7413f0a142fd40d49347",
      "currentBaseFee": "7"
    }
  },
  "stdout": {
    "alloc": {
      "0x2adc25665018aa1fe0e6bc666dac8fc2697ff9ba": {
        "balance": "0x1319718811c8",
        "storage": {}
      },
      "0xa94f5374fce5edbc8e2a8697c15331677e6ebf0b": {
        "nonce": "0x1",
        "balance": "0x3b9aca00",
        "storage": {}
      }
    },
    "body": "0xf865f86380843b9aca00825208940000000000000000000000000000000000000100808026a0e319535da2cae2d72ddb352054535d000c23acdc7cad9d828891253f3850d0d2a032fe4444149b609e2ffa621e23e179b12028309fdb8cb0a5c1bbc58135299af1",
    "result": {
      "stateRoot": "0xbe252b80c472518724f7b2aa7d688891f9b258d8f43f12b01e1ef5e3cb76bce9",
      "txRoot": "0xb5ffe01eaa51ee8246b2108e049e6e11dc0a1d99b4cc52966791ef9c40b8b863",
      "receiptsRoot": "0x056b23fbba480696b65fe5a59b8f2148a1299103c4f57df839233af2cf4ca2d2",
      "logsHash": "0x1dcc4de8dec75d7aab85b567b6ccd41ad312451b948a7413f0a142fd40d49347",
      "logsBloom": "0x00000000000000000000000000000000000000000000000000000000000000000000000000000000000000000000000000000000000000000000000000000000000000000000000000000000000000000000000000000000000000000000000000000000000000000000000000000000000000000000000000000000000000000000000000000000000000000000000000000000000000000000000000000000000000000000000000000000000000000000000000000000000000000000000000000000000000000000000000000000000000000000000000000000000000000000000000000000000000000000000000000000000000000000000000000000",
      "receipts": [
        {
          "root": "0x",
          "status": "0x1",
          "cumulativeGasUsed": "0x5208",
          "logsBloom": "0x00000000000000000000000000000000000000000000000000000000000000000000000000000000000000000000000000000000000000000000000000000000000000000000000000000000000000000000000000000000000000000000000000000000000000000000000000000000000000000000000000000000000000000000000000000000000000000000000000000000000000000000000000000000000000000000000000000000000000000000000000000000000000000000000000000000000000000000000000000000000000000000000000000000000000000000000000000000000000000000000000000000000000000000000000000000",
          "logs": null,
          "transactionHash": "0xb5a8d2d008438dd97446b4e0971ae968fb07ee25f9c7d574d96e60808ce25dd1",
          "contractAddress": "0x0000000000000000000000000000000000000000",
          "gasUsed": "0x5208",
          "blockHash": "0x0000000000000000000000000000000000000000000000000000000000000000",
          "transactionIndex": "0x0"
        }
      ],
      "currentDifficulty": "0x0",
      "gasUsed": "0x5208",
      "withdrawalsRoot": "0x56e81f171bcc55a6ff8345e692c0f86e5b48e01b996cadc001622fb5e363b421"
    }
  }
}