{
  "comment" : "Simple value transfer",
  "request" : {
    "jsonrpc" : "2.0",
    "method" : "trace_rawTransaction",
    "params" : [ "0xf8618081ef83fffff294000000000000000000000000000000000000099901801ca06aeaaaac3375bb814d36f8c5fb941dae51b55dffc22a6fd3b5b3dd30a9a489d6a05a07dd9d31a1b78fed59812496306fd9e17446cbb456e4e68f1d15b186567302", [ "stateDiff" ] ],
    "id" : 0
  },
  "response" : {
    "jsonrpc" : "2.0",
    "result" : {
      "output" : "0x",
      "stateDiff" : {
        "0x0000000000000000000000000000000000000000" : {
          "balance" : {
            "*" : {
              "from" : "0x393f0f18385c0b29e",
              "to" : "0x393f0f183860d4816"
            }
          },
          "code" : "=",
          "nonce" : "=",
          "storage" : { }
        },
        "0x0000000000000000000000000000000000000999" : {
          "balance" : {
            "*" : {
              "from" : "0x1",
              "to" : "0x2"
            }
          },
          "code" : "=",
          "nonce" : "=",
          "storage" : { }
        },
        "0x627306090abab3a6e1400e9345bc60c78a8bef57" : {
          "balance" : {
            "*" : {
              "from" : "0xefffffffffffe28d07a0be63b",
              "to" : "0xefffffffffffe28d079bf50c2"
            }
          },
          "code" : "=",
          "nonce" : {
            "*" : {
              "from" : "0x17",
              "to" : "0x18"
            }
          },
          "storage" : { }
        }
      },
      "trace" : [ ],
      "vmTrace" : null
    },
    "id" : 0
  },
  "statusCode" : 200
}