{
  "comment" : "Set contract storage (key,value)'s: (1,1),(2,2)",
  "request" : {
    "jsonrpc" : "2.0",
    "method" : "trace_rawTransaction",
    "params" : [ "0xf8e21e81ef83fffff294001000000000000000000000000000000000000080b88000000000000000000000000000000000000000000000000000000000000000010000000000000000000000000000000000000000000000000000000000000001000000000000000000000000000000000000000000000000000000000000000200000000000000000000000000000000000000000000000000000000000000021ca01755bc8ad823bfe5921b6fd1be1103746d95a595036475a1e00fd324505d90e2a0592eebdf2a531e58df4a1aff8b844a1fe457256bc9b52a84e30b6e4ac8a18add", [ "stateDiff" ] ],
    "id" : 2
  },
  "response" : {
    "jsonrpc" : "2.0",
    "result" : {
      "output" : "0x",
      "stateDiff" : {
        "0x0000000000000000000000000000000000000000" : {
          "balance" : {
            "*" : {
              "from" : "0x393f0f18385c0b29e",
              "to" : "0x393f0f18386a1490e"
            }
          },
          "code" : "=",
          "nonce" : "=",
          "storage" : { }
        },
        "0x0010000000000000000000000000000000000000" : {
          "balance" : "=",
          "code" : "=",
          "nonce" : "=",
          "storage" : {
            "0x0000000000000000000000000000000000000000000000000000000000000001" : {
              "*" : {
                "from" : "0x0000000000000000000000000000000000000000000000000000000000000000",
                "to" : "0x0000000000000000000000000000000000000000000000000000000000000001"
              }
            },
            "0x0000000000000000000000000000000000000000000000000000000000000002" : {
              "*" : {
                "from" : "0x0000000000000000000000000000000000000000000000000000000000000000",
                "to" : "0x0000000000000000000000000000000000000000000000000000000000000002"
              }
            }
          }
        },
        "0xfe3b557e8fb62b89f4916b721be55ceb828dbd73" : {
          "balance" : {
            "*" : {
              "from" : "0xffffffffffffffffffffffffffffffffd27fb671b",
              "to" : "0xffffffffffffffffffffffffffffffffd271ad0ab"
            }
          },
          "code" : "=",
          "nonce" : {
            "*" : {
              "from" : "0x1e",
              "to" : "0x1f"
            }
          },
          "storage" : { }
        }
      },
      "trace" : [ ],
      "vmTrace" : null
    },
    "id" : 2
  },
  "statusCode" : 200
}