{
  "comment" : "Call to a contract creation that fails with a depth of 1",
  "request" : {
    "jsonrpc" : "2.0",
    "method" : "trace_rawTransaction",
    "params" : [ "0xf880801083011fa194018000000000000000000000000000000000000080a0000000000000000000000000000000000000000000000000000000000000ea601ba0fe83c0fb93afd79bdd52ede0bd5a42dca96354f89a5fcaec6665ed6ed74e003ca0247aeceb63d540425eac8e6def3ab2cbceab34eb0ac7a4058ebda5d58839284f", [ "stateDiff" ] ],
    "id" : 51
  },
  "response" : {
    "jsonrpc" : "2.0",
    "result" : {
      "output" : "0x",
      "stateDiff" : {
        "0x0000000000000000000000000000000000000000" : {
          "balance" : {
            "*" : {
              "from" : "0x393f0f18385c0b29e",
              "to" : "0x393f0f18385d298be"
            }
          },
          "code" : "=",
          "nonce" : "=",
          "storage" : { }
        },
        "0x0180000000000000000000000000000000000000" : {
          "balance" : "=",
          "code" : "=",
          "nonce" : {
            "*" : {
              "from" : "0x1",
              "to" : "0x2"
            }
          },
          "storage" : { }
        },
        "0xfe3b557e8fb62b89f4916b721be55ceb828dbd73" : {
          "balance" : {
            "*" : {
              "from" : "0xffffffffffffffffffffffffffffffffd27fb671b",
              "to" : "0xffffffffffffffffffffffffffffffffd27e980fb"
            }
          },
          "code" : "=",
          "nonce" : {
            "*" : {
              "from" : "0x1e",
              "to" : "0x1f"
            }
          },
          "storage" : { }
        }
      },
      "trace" : [ ],
      "vmTrace" : null
    },
    "id" : 51
  },
  "statusCode" : 200
}