{
  "comment" : "Set contract storage (key,value)'s: (1,3),(2,4)",
  "request" : {
    "jsonrpc" : "2.0",
    "method" : "trace_rawTransaction",
    "params" : [ "0xf8e21781ef83fffff294001000000000000000000000000000000000000080b88000000000000000000000000000000000000000000000000000000000000000010000000000000000000000000000000000000000000000000000000000000003000000000000000000000000000000000000000000000000000000000000000200000000000000000000000000000000000000000000000000000000000000041ba0ac6a6262a65077e17a0f61f9fe14f1a20d2c87131e978671039cfec8fdf388d4a078c5123b21217b491bb8729331a6bdfe711bc023bbd5044139cff47d61ad9285", [ "stateDiff" ] ],
    "id" : 3
  },
  "response" : {
    "jsonrpc" : "2.0",
    "result" : {
      "output" : "0x",
      "stateDiff" : {
        "0x0000000000000000000000000000000000000000" : {
          "balance" : {
            "*" : {
              "from" : "0x393f0f18385c0b29e",
              "to" : "0x393f0f18386a1490e"
            }
          },
          "code" : "=",
          "nonce" : "=",
          "storage" : { }
        },
        "0x0010000000000000000000000000000000000000" : {
          "balance" : "=",
          "code" : "=",
          "nonce" : "=",
          "storage" : {
            "0x0000000000000000000000000000000000000000000000000000000000000001" : {
              "*" : {
                "from" : "0x0000000000000000000000000000000000000000000000000000000000000000",
                "to" : "0x0000000000000000000000000000000000000000000000000000000000000003"
              }
            },
            "0x0000000000000000000000000000000000000000000000000000000000000002" : {
              "*" : {
                "from" : "0x0000000000000000000000000000000000000000000000000000000000000000",
                "to" : "0x0000000000000000000000000000000000000000000000000000000000000004"
              }
            }
          }
        },
        "0x627306090abab3a6e1400e9345bc60c78a8bef57" : {
          "balance" : {
            "*" : {
              "from" : "0xefffffffffffe28d07a0be63b",
              "to" : "0xefffffffffffe28d0792b4fcb"
            }
          },
          "code" : "=",
          "nonce" : {
            "*" : {
              "from" : "0x17",
              "to" : "0x18"
            }
          },
          "storage" : { }
        }
      },
      "trace" : [ ],
      "vmTrace" : null
    },
    "id" : 3
  },
  "statusCode" : 200
}