{
  "comment" : "Set contract storage (key,value)'s: (1,1),(2,2)",
  "request" : {
    "jsonrpc" : "2.0",
    "method" : "trace_rawTransaction",
    "params" : [ "0xf901028081ef83fffff294006000000000000000000000000000000000000080b8a0000000000000000000000000001000000000000000000000000000000000000000000000000000000000000000000000000000000000000000000000000000010000000000000000000000000000000000000000000000000000000000000001000000000000000000000000000000000000000000000000000000000000000200000000000000000000000000000000000000000000000000000000000000021ba084903af53adee596c2b895610c41dca5da1ee4ed381f276de2698058e4e2209ca0717f119089f7f743f7a6586ce9dc7116103d4588a9d8ff2e81ac31f7ebbd4a29", [ "stateDiff" ] ],
    "id" : 37
  },
  "response" : {
    "jsonrpc" : "2.0",
    "result" : {
      "output" : "0x0000000000000000000000000000000000000000000000000000000000000001",
      "stateDiff" : {
        "0x0000000000000000000000000000000000000000" : {
          "balance" : {
            "*" : {
              "from" : "0x393f0f18385c0b29e",
              "to" : "0x393f0f18386a497d3"
            }
          },
          "code" : "=",
          "nonce" : "=",
          "storage" : { }
        },
        "0x0060000000000000000000000000000000000000" : {
          "balance" : "=",
          "code" : "=",
          "nonce" : "=",
          "storage" : {
            "0x0000000000000000000000000000000000000000000000000000000000000001" : {
              "*" : {
                "from" : "0x0000000000000000000000000000000000000000000000000000000000000000",
                "to" : "0x0000000000000000000000000000000000000000000000000000000000000001"
              }
            },
            "0x0000000000000000000000000000000000000000000000000000000000000002" : {
              "*" : {
                "from" : "0x0000000000000000000000000000000000000000000000000000000000000000",
                "to" : "0x0000000000000000000000000000000000000000000000000000000000000002"
              }
            }
          }
        },
        "0x627306090abab3a6e1400e9345bc60c78a8bef57" : {
          "balance" : {
            "*" : {
              "from" : "0xefffffffffffe28d07a0be63b",
              "to" : "0xefffffffffffe28d079280106"
            }
          },
          "code" : "=",
          "nonce" : {
            "*" : {
              "from" : "0x17",
              "to" : "0x18"
            }
          },
          "storage" : { }
        }
      },
      "trace" : [ ],
      "vmTrace" : null
    },
    "id" : 37
  },
  "statusCode" : 200
}