{
  "comment" : "CREATE2",
  "request" : {
    "jsonrpc" : "2.0",
    "method" : "trace_rawTransaction",
    "params" : [ "0xf8611e81ef83fffff294014000000000000000000000000000000000000080801ca0cea7d4023f0762bb24ab50ef1cfc921444ed2bf734878a5ab7e043c9bf42faefa07aca379610ce0c891822b990ebd4a0eb8905fb6faecb06e752b122142dc3e43e", [ "stateDiff" ] ],
    "id" : 32
  },
  "response" : {
    "jsonrpc" : "2.0",
    "result" : {
      "output" : "0x",
      "stateDiff" : {
        "0x0000000000000000000000000000000000000000" : {
          "balance" : {
            "*" : {
              "from" : "0x393f0f18385c0b29e",
              "to" : "0x393f0f18470e3365c"
            }
          },
          "code" : "=",
          "nonce" : "=",
          "storage" : { }
        },
        "0x0140000000000000000000000000000000000000" : {
          "balance" : "=",
          "code" : "=",
          "nonce" : {
            "*" : {
              "from" : "0x1",
              "to" : "0x2"
            }
          },
          "storage" : {
            "0x0000000000000000000000000000000000000000000000000000000000000000" : {
              "*" : {
                "from" : "0x0000000000000000000000000deea5bd06fb86553643c1e94a2f5aac632b9ec9",
                "to" : "0x0000000000000000000000000000000000000000000000000000000000000000"
              }
            }
          }
        },
        "0xfe3b557e8fb62b89f4916b721be55ceb828dbd73" : {
          "balance" : {
            "*" : {
              "from" : "0xffffffffffffffffffffffffffffffffd27fb671b",
              "to" : "0xffffffffffffffffffffffffffffffffc3cd8e35d"
            }
          },
          "code" : "=",
          "nonce" : {
            "*" : {
              "from" : "0x1e",
              "to" : "0x1f"
            }
          },
          "storage" : { }
        }
      },
      "trace" : [ ],
      "vmTrace" : null
    },
    "id" : 32
  },
  "statusCode" : 200
}