{
  "comment" : "CREATE",
  "request" : {
    "jsonrpc" : "2.0",
    "method" : "trace_rawTransaction",
    "params" : [ "0xf8611e81ef83fffff294013000000000000000000000000000000000000080801ca0ea0ed87fa2fd22934bdc66dce2a07e8de6d373e2ea083cf3f1e1a0cf80c9df96a0269acc66497fd4e4a8c253a0db3f07706290daaf21de6092e34a15f36f9a9fab", [ "stateDiff" ] ],
    "id" : 31
  },
  "response" : {
    "jsonrpc" : "2.0",
    "result" : {
      "output" : "0x",
      "stateDiff" : {
        "0x0000000000000000000000000000000000000000" : {
          "balance" : {
            "*" : {
              "from" : "0x393f0f18385c0b29e",
              "to" : "0x393f0f183872aa988"
            }
          },
          "code" : "=",
          "nonce" : "=",
          "storage" : { }
        },
        "0x0130000000000000000000000000000000000000" : {
          "balance" : "=",
          "code" : "=",
          "nonce" : {
            "*" : {
              "from" : "0x1",
              "to" : "0x2"
            }
          },
          "storage" : {
            "0x0000000000000000000000000000000000000000000000000000000000000000" : {
              "*" : {
                "from" : "0x000000000000000000000000aac0627078c038eb3d06e04b57d020fe212be97d",
                "to" : "0x0000000000000000000000002e615edd62acdfeb8ce3270b30fb36f0dbb8779d"
              }
            }
          }
        },
        "0x2e615edd62acdfeb8ce3270b30fb36f0dbb8779d" : {
          "balance" : {
            "+" : "0x0"
          },
          "code" : {
            "+" : "0xffff"
          },
          "nonce" : {
            "+" : "0x1"
          },
          "storage" : {
            "0x0000000000000000000000000000000000000000000000000000000000000001" : {
              "+" : "0x0000000000000000000000000000000000000000000000000000000000000001"
            },
            "0x0000000000000000000000000000000000000000000000000000000000000002" : {
              "+" : "0x0000000000000000000000000000000000000000000000000000000000000001"
            }
          }
        },
        "0xfe3b557e8fb62b89f4916b721be55ceb828dbd73" : {
          "balance" : {
            "*" : {
              "from" : "0xffffffffffffffffffffffffffffffffd27fb671b",
              "to" : "0xffffffffffffffffffffffffffffffffd26917031"
            }
          },
          "code" : "=",
          "nonce" : {
            "*" : {
              "from" : "0x1e",
              "to" : "0x1f"
            }
          },
          "storage" : { }
        }
      },
      "trace" : [ ],
      "vmTrace" : null
    },
    "id" : 31
  },
  "statusCode" : 200
}