{
  "comment" : "Transaction to test refund_CallToSuicideTwice_d0g0v0_Istanbul",
  "request" : {
    "jsonrpc" : "2.0",
    "method" : "trace_rawTransaction",
    "params" : [ "0xf8801e01839896809401600000000000000000000000000000000000000aa000000000000000000000000000000000000000000000000000000000000001f41ba031b9f6570ab7eea16c2329cb344cd4df0edf3bee966e1f5c0830d753961dee79a0056c01d3fa2510a51317871f3e7c1dc0db5edfb59180dee47725215fd1ff415f", [ "stateDiff" ] ],
    "id" : 49
  },
  "response" : {
    "jsonrpc" : "2.0",
    "result" : {
      "output" : "0x",
      "stateDiff" : {
        "0x0000000000000000000000000000000000000000" : {
          "balance" : {
            "*" : {
              "from" : "0x393f0f18385c0b29e",
              "to" : "0x393f0f18385c111f1"
            }
          },
          "code" : "=",
          "nonce" : "=",
          "storage" : { }
        },
        "0x0160000000000000000000000000000000000000" : {
          "balance" : {
            "*" : {
              "from" : "0xde0b6b3a764000a",
              "to" : "0xde0b6b3a7640014"
            }
          },
          "code" : "=",
          "nonce" : "=",
          "storage" : { }
        },
        "0xfe3b557e8fb62b89f4916b721be55ceb828dbd73" : {
          "balance" : {
            "*" : {
              "from" : "0xffffffffffffffffffffffffffffffffd27fb671b",
              "to" : "0xffffffffffffffffffffffffffffffffd27fb07be"
            }
          },
          "code" : "=",
          "nonce" : {
            "*" : {
              "from" : "0x1e",
              "to" : "0x1f"
            }
          },
          "storage" : { }
        }
      },
      "trace" : [ ],
      "vmTrace" : null
    },
    "id" : 49
  },
  "statusCode" : 200
}