{
  "comment" : "Simple value transfer",
  "request" : {
    "jsonrpc" : "2.0",
    "method" : "trace_rawTransaction",
    "params" : [ "0xf8611781ef83fffff294000000000000000000000000000000000000099901801ca04ecb4fc65c930379a3688b9e34fb450141c141a6f8a651235ec4ddaaa62b0bd4a04d44121854a8747da882d3b66793bc3e8b0129cf6af18d43c4815ba2e3b097ef", [ "stateDiff" ] ],
    "id" : 0
  },
  "response" : {
    "jsonrpc" : "2.0",
    "result" : {
      "output" : "0x",
      "stateDiff" : {
        "0x0000000000000000000000000000000000000000" : {
          "balance" : {
            "*" : {
              "from" : "0x393f0f18385c0b29e",
              "to" : "0x393f0f183860d4816"
            }
          },
          "code" : "=",
          "nonce" : "=",
          "storage" : { }
        },
        "0x0000000000000000000000000000000000000999" : {
          "balance" : {
            "*" : {
              "from" : "0x1",
              "to" : "0x2"
            }
          },
          "code" : "=",
          "nonce" : "=",
          "storage" : { }
        },
        "0x627306090abab3a6e1400e9345bc60c78a8bef57" : {
          "balance" : {
            "*" : {
              "from" : "0xefffffffffffe28d07a0be63b",
              "to" : "0xefffffffffffe28d079bf50c2"
            }
          },
          "code" : "=",
          "nonce" : {
            "*" : {
              "from" : "0x17",
              "to" : "0x18"
            }
          },
          "storage" : { }
        }
      },
      "trace" : [ ],
      "vmTrace" : null
    },
    "id" : 0
  },
  "statusCode" : 200
}