{
  "comment" : "Set contract storage (key,value)'s: (1,3),(2,4)",
  "request" : {
    "jsonrpc" : "2.0",
    "method" : "trace_rawTransaction",
    "params" : [ "0xf901028081ef83fffff294006000000000000000000000000000000000000080b8a0000000000000000000000000001000000000000000000000000000000000000000000000000000000000000000000000000000000000000000000000000000010000000000000000000000000000000000000000000000000000000000000003000000000000000000000000000000000000000000000000000000000000000200000000000000000000000000000000000000000000000000000000000000041ca00d29c006b870d19f20ee457aa54a3a121fd18274161c9c3908f71599558f19b7a056ed2dbffa79e65be4bd5f885857595d5fd40175e0be065d49de7027fe8d8a54", [ "stateDiff" ] ],
    "id" : 38
  },
  "response" : {
    "jsonrpc" : "2.0",
    "result" : {
      "output" : "0x0000000000000000000000000000000000000000000000000000000000000001",
      "stateDiff" : {
        "0x0000000000000000000000000000000000000000" : {
          "balance" : {
            "*" : {
              "from" : "0x393f0f18385c0b29e",
              "to" : "0x393f0f18386a497d3"
            }
          },
          "code" : "=",
          "nonce" : "=",
          "storage" : { }
        },
        "0x0060000000000000000000000000000000000000" : {
          "balance" : "=",
          "code" : "=",
          "nonce" : "=",
          "storage" : {
            "0x0000000000000000000000000000000000000000000000000000000000000001" : {
              "*" : {
                "from" : "0x0000000000000000000000000000000000000000000000000000000000000000",
                "to" : "0x0000000000000000000000000000000000000000000000000000000000000003"
              }
            },
            "0x0000000000000000000000000000000000000000000000000000000000000002" : {
              "*" : {
                "from" : "0x0000000000000000000000000000000000000000000000000000000000000000",
                "to" : "0x0000000000000000000000000000000000000000000000000000000000000004"
              }
            }
          }
        },
        "0x627306090abab3a6e1400e9345bc60c78a8bef57" : {
          "balance" : {
            "*" : {
              "from" : "0xefffffffffffe28d07a0be63b",
              "to" : "0xefffffffffffe28d079280106"
            }
          },
          "code" : "=",
          "nonce" : {
            "*" : {
              "from" : "0x17",
              "to" : "0x18"
            }
          },
          "storage" : { }
        }
      },
      "trace" : [ ],
      "vmTrace" : null
    },
    "id" : 38
  },
  "statusCode" : 200
}