{
    "HighGasPrice" : {
        "_info" : {
            "comment" : "",
            "filling-rpc-server" : "evm version 1.10.16-unstable-0f893109-20220105",
            "filling-tool-version" : "retesteth-0.2.2-testinfo+commit.01c6aac2.Linux.g++",
            "generatedTestHash" : "399ed11fc62af31e9c3dc126828160c15b9c2422373ef7f68a628017a9693a63",
            "lllcversion" : "Version: 0.5.14-develop.2021.11.27+commit.401d5358.Linux.g++",
            "solidity" : "Version: 0.8.5+commit.a4f2e591.Linux.g++",
            "source" : "src/GeneralStateTestsFiller/stTransactionTest/HighGasPriceFiller.yml",
            "sourceHash" : "b3c0dfeeca0bb9616669d0bdd0996e24c71febd2579d14e9ec42914e9f096a44"
        },
        "env" : {
            "currentBaseFee" : "0x0a",
            "currentCoinbase" : "0x2adc25665018aa1fe0e6bc666dac8fc2697ff9ba",
            "currentDifficulty" : "0x020000",
            "currentGasLimit" : "0x05500000",
            "currentNumber" : "0x01",
            "currentTimestamp" : "0x03e8",
            "previousHash" : "0x5e20a0453cecd065ea59c37ac63e079ee08998b6045136a8ce6635c7912ec0b6"
        },
        "post" : {
            "Berlin" : [
                {
                    "expectException" : "TR_NoFunds",
                    "hash" : "0x1751725d1aad5298768fbcf64069b2c1b85aeaffcc561146067d6beedd08052a",
                    "indexes" : {
                        "data" : 0,
                        "gas" : 0,
                        "value" : 0
                    },
                    "logs" : "0x1dcc4de8dec75d7aab85b567b6ccd41ad312451b948a7413f0a142fd40d49347",
                    "txbytes" : "0xf87e809f031eea408f8e1799cb883da2927b1336521d73c2c14accfebb70d5c5af006c82520894d0d0d0d0d0d0d0d0d0d0d0d0d0d0d0d0d0d0d0d001801ca039b081ab7094dff1b3ac79cbf8e381adc9f7a4e16290d7abc42dd006e5e062c5a033af00e26e5eb4431dcad601b2c8bf12d51eef2bd037d14681f22692ffab1ccd"
                }
            ],
            "Byzantium" : [
                {
                    "expectException" : "TR_NoFunds",
                    "hash" : "0x1751725d1aad5298768fbcf64069b2c1b85aeaffcc561146067d6beedd08052a",
                    "indexes" : {
                        "data" : 0,
                        "gas" : 0,
                        "value" : 0
                    },
                    "logs" : "0x1dcc4de8dec75d7aab85b567b6ccd41ad312451b948a7413f0a142fd40d49347",
                    "txbytes" : "0xf87e809f031eea408f8e1799cb883da2927b1336521d73c2c14accfebb70d5c5af006c82520894d0d0d0d0d0d0d0d0d0d0d0d0d0d0d0d0d0d0d0d001801ca039b081ab7094dff1b3ac79cbf8e381adc9f7a4e16290d7abc42dd006e5e062c5a033af00e26e5eb4431dcad601b2c8bf12d51eef2bd037d14681f22692ffab1ccd"
                }
            ],
            "Constantinople" : [
                {
                    "expectException" : "TR_NoFunds",
                    "hash" : "0x1751725d1aad5298768fbcf64069b2c1b85aeaffcc561146067d6beedd08052a",
                    "indexes" : {
                        "data" : 0,
                        "gas" : 0,
                        "value" : 0
                    },
                    "logs" : "0x1dcc4de8dec75d7aab85b567b6ccd41ad312451b948a7413f0a142fd40d49347",
                    "txbytes" : "0xf87e809f031eea408f8e1799cb883da2927b1336521d73c2c14accfebb70d5c5af006c82520894d0d0d0d0d0d0d0d0d0d0d0d0d0d0d0d0d0d0d0d001801ca039b081ab7094dff1b3ac79cbf8e381adc9f7a4e16290d7abc42dd006e5e062c5a033af00e26e5eb4431dcad601b2c8bf12d51eef2bd037d14681f22692ffab1ccd"
                }
            ],
            "ConstantinopleFix" : [
                {
                    "expectException" : "TR_NoFunds",
                    "hash" : "0x1751725d1aad5298768fbcf64069b2c1b85aeaffcc561146067d6beedd08052a",
                    "indexes" : {
                        "data" : 0,
                        "gas" : 0,
                        "value" : 0
                    },
                    "logs" : "0x1dcc4de8dec75d7aab85b567b6ccd41ad312451b948a7413f0a142fd40d49347",
                    "txbytes" : "0xf87e809f031eea408f8e1799cb883da2927b1336521d73c2c14accfebb70d5c5af006c82520894d0d0d0d0d0d0d0d0d0d0d0d0d0d0d0d0d0d0d0d001801ca039b081ab7094dff1b3ac79cbf8e381adc9f7a4e16290d7abc42dd006e5e062c5a033af00e26e5eb4431dcad601b2c8bf12d51eef2bd037d14681f22692ffab1ccd"
                }
            ],
            "EIP150" : [
                {
                    "expectException" : "TR_NoFunds",
                    "hash" : "0x1751725d1aad5298768fbcf64069b2c1b85aeaffcc561146067d6beedd08052a",
                    "indexes" : {
                        "data" : 0,
                        "gas" : 0,
                        "value" : 0
                    },
                    "logs" : "0x1dcc4de8dec75d7aab85b567b6ccd41ad312451b948a7413f0a142fd40d49347",
                    "txbytes" : "0xf87e809f031eea408f8e1799cb883da2927b1336521d73c2c14accfebb70d5c5af006c82520894d0d0d0d0d0d0d0d0d0d0d0d0d0d0d0d0d0d0d0d001801ca039b081ab7094dff1b3ac79cbf8e381adc9f7a4e16290d7abc42dd006e5e062c5a033af00e26e5eb4431dcad601b2c8bf12d51eef2bd037d14681f22692ffab1ccd"
                }
            ],
            "EIP158" : [
                {
                    "expectException" : "TR_NoFunds",
                    "hash" : "0x1751725d1aad5298768fbcf64069b2c1b85aeaffcc561146067d6beedd08052a",
                    "indexes" : {
                        "data" : 0,
                        "gas" : 0,
                        "value" : 0
                    },
                    "logs" : "0x1dcc4de8dec75d7aab85b567b6ccd41ad312451b948a7413f0a142fd40d49347",
                    "txbytes" : "0xf87e809f031eea408f8e1799cb883da2927b1336521d73c2c14accfebb70d5c5af006c82520894d0d0d0d0d0d0d0d0d0d0d0d0d0d0d0d0d0d0d0d001801ca039b081ab7094dff1b3ac79cbf8e381adc9f7a4e16290d7abc42dd006e5e062c5a033af00e26e5eb4431dcad601b2c8bf12d51eef2bd037d14681f22692ffab1ccd"
                }
            ],
            "Frontier" : [
                {
                    "expectException" : "TR_NoFunds",
                    "hash" : "0x1751725d1aad5298768fbcf64069b2c1b85aeaffcc561146067d6beedd08052a",
                    "indexes" : {
                        "data" : 0,
                        "gas" : 0,
                        "value" : 0
                    },
                    "logs" : "0x1dcc4de8dec75d7aab85b567b6ccd41ad312451b948a7413f0a142fd40d49347",
                    "txbytes" : "0xf87e809f031eea408f8e1799cb883da2927b1336521d73c2c14accfebb70d5c5af006c82520894d0d0d0d0d0d0d0d0d0d0d0d0d0d0d0d0d0d0d0d001801ca039b081ab7094dff1b3ac79cbf8e381adc9f7a4e16290d7abc42dd006e5e062c5a033af00e26e5eb4431dcad601b2c8bf12d51eef2bd037d14681f22692ffab1ccd"
                }
            ],
            "Homestead" : [
                {
                    "expectException" : "TR_NoFunds",
                    "hash" : "0x1751725d1aad5298768fbcf64069b2c1b85aeaffcc561146067d6beedd08052a",
                    "indexes" : {
                        "data" : 0,
                        "gas" : 0,
                        "value" : 0
                    },
                    "logs" : "0x1dcc4de8dec75d7aab85b567b6ccd41ad312451b948a7413f0a142fd40d49347",
                    "txbytes" : "0xf87e809f031eea408f8e1799cb883da2927b1336521d73c2c14accfebb70d5c5af006c82520894d0d0d0d0d0d0d0d0d0d0d0d0d0d0d0d0d0d0d0d001801ca039b081ab7094dff1b3ac79cbf8e381adc9f7a4e16290d7abc42dd006e5e062c5a033af00e26e5eb4431dcad601b2c8bf12d51eef2bd037d14681f22692ffab1ccd"
                }
            ],
            "Istanbul" : [
                {
                    "expectException" : "TR_NoFunds",
                    "hash" : "0x1751725d1aad5298768fbcf64069b2c1b85aeaffcc561146067d6beedd08052a",
                    "indexes" : {
                        "data" : 0,
                        "gas" : 0,
                        "value" : 0
                    },
                    "logs" : "0x1dcc4de8dec75d7aab85b567b6ccd41ad312451b948a7413f0a142fd40d49347",
                    "txbytes" : "0xf87e809f031eea408f8e1799cb883da2927b1336521d73c2c14accfebb70d5c5af006c82520894d0d0d0d0d0d0d0d0d0d0d0d0d0d0d0d0d0d0d0d001801ca039b081ab7094dff1b3ac79cbf8e381adc9f7a4e16290d7abc42dd006e5e062c5a033af00e26e5eb4431dcad601b2c8bf12d51eef2bd037d14681f22692ffab1ccd"
                }
            ],
            "London" : [
                {
                    "expectException" : "TR_NoFunds",
                    "hash" : "0x1751725d1aad5298768fbcf64069b2c1b85aeaffcc561146067d6beedd08052a",
                    "indexes" : {
                        "data" : 0,
                        "gas" : 0,
                        "value" : 0
                    },
                    "logs" : "0x1dcc4de8dec75d7aab85b567b6ccd41ad312451b948a7413f0a142fd40d49347",
                    "txbytes" : "0xf87e809f031eea408f8e1799cb883da2927b1336521d73c2c14accfebb70d5c5af006c82520894d0d0d0d0d0d0d0d0d0d0d0d0d0d0d0d0d0d0d0d001801ca039b081ab7094dff1b3ac79cbf8e381adc9f7a4e16290d7abc42dd006e5e062c5a033af00e26e5eb4431dcad601b2c8bf12d51eef2bd037d14681f22692ffab1ccd"
                }
            ]
        },
        "pre" : {
            "0xa94f5374fce5edbc8e2a8697c15331677e6ebf0b" : {
                "balance" : "0x3b9aca00",
                "code" : "0x",
                "nonce" : "0x00",
                "storage" : {
                }
            },
            "0xd0d0d0d0d0d0d0d0d0d0d0d0d0d0d0d0d0d0d0d0" : {
                "balance" : "0x00",
                "code" : "0x",
                "nonce" : "0x00",
                "storage" : {
                }
            }
        },
        "transaction" : {
            "data" : [
                "0x"
            ],
            "gasLimit" : [
                "0x5208"
            ],
            "gasPrice" : "0x031eea408f8e1799cb883da2927b1336521d73c2c14accfebb70d5c5af006c",
            "nonce" : "0x00",
            "secretKey" : "0x45a915e4d060149eb4365960e6a7a45f334393093061116b197e3240065ff2d8",
            "sender" : "0xa94f5374fce5edbc8e2a8697c15331677e6ebf0b",
            "to" : "0xd0d0d0d0d0d0d0d0d0d0d0d0d0d0d0d0d0d0d0d0",
            "value" : [
                "0x01"
            ]
        }
    }
}