{
  "NonZeroValue_CALLCODE_ToEmpty_d0g0v0_London" : {
    "_info" : {
      "comment" : "",
      "filling-rpc-server" : "evm version 1.13.5-unstable-cd295356-20231019",
      "filling-tool-version" : "retesteth-0.3.1-cancun+commit.1e18e0b3.Linux.g++",
      "generatedTestHash" : "166b28605d2ec483d00bec0b9d526bca08429cf8ef8aa6f91f5d1d6d8cf5e67c",
      "lllcversion" : "Version: 0.5.14-develop.2023.7.11+commit.c58ab2c6.mod.Linux.g++",
      "solidity" : "Version: 0.8.21+commit.d9974bed.Linux.g++",
      "source" : "src/GeneralStateTestsFiller/stNonZeroCallsTest/NonZeroValue_CALLCODE_ToEmptyFiller.json",
      "sourceHash" : "8beae9322e65528bd6ea7e38779cdf0d28dd24db8bf2f3f5c69afadc0b466b4a"
    },
    "blocks" : [
      {
        "blockHeader" : {
          "baseFeePerGas" : "0x0a",
          "bloom" : "0x00000000000000000000000000000000000000000000000000000000000000000000000000000000000000000000000000000000000000000000000000000000000000000000000000000000000000000000000000000000000000000000000000000000000000000000000000000000000000000000000000000000000000000000000000000000000000000000000000000000000000000000000000000000000000000000000000000000000000000000000000000000000000000000000000000000000000000000000000000000000000000000000000000000000000000000000000000000000000000000000000000000000000000000000000000000",
          "coinbase" : "0x2adc25665018aa1fe0e6bc666dac8fc2697ff9ba",
          "difficulty" : "0x020000",
          "extraData" : "0x00",
          "gasLimit" : "0x989680",
          "gasUsed" : "0x012335",
          "hash" : "0xb4489fae9c80e3f100ce81746481f9f074585d594c20a30848693fae1b8626ec",
          "mixHash" : "0x0000000000000000000000000000000000000000000000000000000000000000",
          "nonce" : "0x0000000000000000",
          "number" : "0x01",
          "parentHash" : "0x3903eb4adae7c58dafa953db7dd9ca5cc4e5d5a4a0206df7ecd816d3a2abd253",
          "receiptTrie" : "0x1449ca37ead274457de22024c74a81717f23c2f3b134b7705bfc760af20ed33d",
          "stateRoot" : "0x0e51082c77e29058b1bf1d58c87fa00134c168f0cab8dd65bccecbf157db8748",
          "timestamp" : "0x03e8",
          "transactionsTrie" : "0xfafb034a78f3568ebc37337168cfa75a68f32679b7f639ba47c99a4e248164a8",
          "uncleHash" : "0x1dcc4de8dec75d7aab85b567b6ccd41ad312451b948a7413f0a142fd40d49347"
        },
        "rlp" : "0xf90261f901f9a03903eb4adae7c58dafa953db7dd9ca5cc4e5d5a4a0206df7ecd816d3a2abd253a01dcc4de8dec75d7aab85b567b6ccd41ad312451b948a7413f0a142fd40d49347942adc25665018aa1fe0e6bc666dac8fc2697ff9baa00e51082c77e29058b1bf1d58c87fa00134c168f0cab8dd65bccecbf157db8748a0fafb034a78f3568ebc37337168cfa75a68f32679b7f639ba47c99a4e248164a8a01449ca37ead274457de22024c74a81717f23c2f3b134b7705bfc760af20ed33db9010000000000000000000000000000000000000000000000000000000000000000000000000000000000000000000000000000000000000000000000000000000000000000000000000000000000000000000000000000000000000000000000000000000000000000000000000000000000000000000000000000000000000000000000000000000000000000000000000000000000000000000000000000000000000000000000000000000000000000000000000000000000000000000000000000000000000000000000000000000000000000000000000000000000000000000000000000000000000000000000000000000000000000000000000000000000830200000183989680830123358203e800a000000000000000000000000000000000000000000000000000000000000000008800000000000000000af862f860800a830927c094b94f5374fce5edbc8e2a8697c15331677e6ebf0b80801ca065622aa0319be041688699ffcc35390d71659fb43600cba91177760bd5cbe3f7a05d3be8e63e5061a12f6f569ba20df19ea8a844cbe9eba3a85c230f7cd8d70426c0",
        "transactions" : [
          {
            "data" : "0x",
            "gasLimit" : "0x0927c0",
            "gasPrice" : "0x0a",
            "nonce" : "0x00",
            "r" : "0x65622aa0319be041688699ffcc35390d71659fb43600cba91177760bd5cbe3f7",
            "s" : "0x5d3be8e63e5061a12f6f569ba20df19ea8a844cbe9eba3a85c230f7cd8d70426",
            "sender" : "0xa94f5374fce5edbc8e2a8697c15331677e6ebf0b",
            "to" : "0xb94f5374fce5edbc8e2a8697c15331677e6ebf0b",
            "v" : "0x1c",
            "value" : "0x00"
          }
        ],
        "uncleHeaders" : [
        ]
      }
    ],
    "genesisBlockHeader" : {
      "baseFeePerGas" : "0x0b",
      "bloom" : "0x00000000000000000000000000000000000000000000000000000000000000000000000000000000000000000000000000000000000000000000000000000000000000000000000000000000000000000000000000000000000000000000000000000000000000000000000000000000000000000000000000000000000000000000000000000000000000000000000000000000000000000000000000000000000000000000000000000000000000000000000000000000000000000000000000000000000000000000000000000000000000000000000000000000000000000000000000000000000000000000000000000000000000000000000000000000",
      "coinbase" : "0x2adc25665018aa1fe0e6bc666dac8fc2697ff9ba",
      "difficulty" : "0x020000",
      "extraData" : "0x00",
      "gasLimit" : "0x989680",
      "gasUsed" : "0x00",
      "hash" : "0x3903eb4adae7c58dafa953db7dd9ca5cc4e5d5a4a0206df7ecd816d3a2abd253",
      "mixHash" : "0x0000000000000000000000000000000000000000000000000000000000000000",
      "nonce" : "0x0000000000000000",
      "number" : "0x00",
      "parentHash" : "0x0000000000000000000000000000000000000000000000000000000000000000",
      "receiptTrie" : "0x56e81f171bcc55a6ff8345e692c0f86e5b48e01b996cadc001622fb5e363b421",
      "stateRoot" : "0x12f8a20f0364f8bdba09201768144954d53c8f2248693836c33986914e94253e",
      "timestamp" : "0x00",
      "transactionsTrie" : "0x56e81f171bcc55a6ff8345e692c0f86e5b48e01b996cadc001622fb5e363b421",
      "uncleHash" : "0x1dcc4de8dec75d7aab85b567b6ccd41ad312451b948a7413f0a142fd40d49347"
    },
    "genesisRLP" : "0xf901f9f901f4a00000000000000000000000000000000000000000000000000000000000000000a01dcc4de8dec75d7aab85b567b6ccd41ad312451b948a7413f0a142fd40d49347942adc25665018aa1fe0e6bc666dac8fc2697ff9baa012f8a20f0364f8bdba09201768144954d53c8f2248693836c33986914e94253ea056e81f171bcc55a6ff8345e692c0f86e5b48e01b996cadc001622fb5e363b421a056e81f171bcc55a6ff8345e692c0f86e5b48e01b996cadc001622fb5e363b421b9010000000000000000000000000000000000000000000000000000000000000000000000000000000000000000000000000000000000000000000000000000000000000000000000000000000000000000000000000000000000000000000000000000000000000000000000000000000000000000000000000000000000000000000000000000000000000000000000000000000000000000000000000000000000000000000000000000000000000000000000000000000000000000000000000000000000000000000000000000000000000000000000000000000000000000000000000000000000000000000000000000000000000000000000000000000000830200008083989680808000a000000000000000000000000000000000000000000000000000000000000000008800000000000000000bc0c0",
    "lastblockhash" : "0xb4489fae9c80e3f100ce81746481f9f074585d594c20a30848693fae1b8626ec",
    "network" : "London",
    "postState" : {
      "0x2adc25665018aa1fe0e6bc666dac8fc2697ff9ba" : {
        "balance" : "0x1bc16d674ec80000",
        "code" : "0x",
        "nonce" : "0x00",
        "storage" : {
        }
      },
      "0xa94f5374fce5edbc8e2a8697c15331677e6ebf0b" : {
        "balance" : "0xe8d499afee",
        "code" : "0x",
        "nonce" : "0x01",
        "storage" : {
        }
      },
      "0xb94f5374fce5edbc8e2a8697c15331677e6ebf0b" : {
        "balance" : "0x64",
        "code" : "0x5a6000526000600060006000600173c94f5374fce5edbc8e2a8697c15331677e6ebf0b61ea60f26001555a6000510360645500",
        "nonce" : "0x00",
        "storage" : {
          "0x01" : "0x01",
          "0x64" : "0x7acb"
        }
      },
      "0xc94f5374fce5edbc8e2a8697c15331677e6ebf0b" : {
        "balance" : "0x00",
        "code" : "0x",
        "nonce" : "0x00",
        "storage" : {
        }
      }
    },
    "pre" : {
      "0xa94f5374fce5edbc8e2a8697c15331677e6ebf0b" : {
        "balance" : "0xe8d4a51000",
        "code" : "0x",
        "nonce" : "0x00",
        "storage" : {
        }
      },
      "0xb94f5374fce5edbc8e2a8697c15331677e6ebf0b" : {
        "balance" : "0x64",
        "code" : "0x5a6000526000600060006000600173c94f5374fce5edbc8e2a8697c15331677e6ebf0b61ea60f26001555a6000510360645500",
        "nonce" : "0x00",
        "storage" : {
        }
      },
      "0xc94f5374fce5edbc8e2a8697c15331677e6ebf0b" : {
        "balance" : "0x00",
        "code" : "0x",
        "nonce" : "0x00",
        "storage" : {
        }
      }
    },
    "sealEngine" : "NoProof"
  }
}
