{
  "request": {
    "id": 446,
    "jsonrpc": "2.0",
    "method": "eth_getTransactionByBlockHashAndIndex",
    "params": [
      "0x71d59849ddd98543bdfbe8548f5eed559b07b8aaf196369f39134500eab68e53",
      "0x0"
    ]
  },
  "response": {
    "jsonrpc": "2.0",
    "id": 446,
    "result": {
      "blockHash": "0x71d59849ddd98543bdfbe8548f5eed559b07b8aaf196369f39134500eab68e53",
      "blockNumber": "0x20",
      "from": "0xa94f5374fce5edbc8e2a8697c15331677e6ebf0b",
      "gas": "0x4cb2f",
      "gasPrice": "0x1",
      "hash": "0xcef53f2311d7c80e9086d661e69ac11a5f3d081e28e02a9ba9b66749407ac310",
      "input": "0x9dc2c8f5",
      "nonce": "0x1f",
      "publicKey": "0x3a514176466fa815ed481ffad09110a2d344f6c9b78c1d14afc351c3a51be33d8072e77939dc03ba44790779b7a1025baf3003f6732430e20cd9b76d953391b3",
      "raw": "0xf8641f018304cb2f946295ee1b4f6dd65047762f924ecd367c17eabf8f0a849dc2c8f51ba0705b002a7df60707d33812e0298411721be20ea5a2f533707295140d89263b79a078024390784f24160739533b3ceea2698289a02afd9cc768581b4aa3d5f4b105",
      "to": "0x6295ee1b4f6dd65047762f924ecd367c17eabf8f",
      "transactionIndex": "0x0",
      "type" : "0x0",
      "value": "0xa",
      "v": "0x1b",
      "r": "0x705b002a7df60707d33812e0298411721be20ea5a2f533707295140d89263b79",
      "s": "0x78024390784f24160739533b3ceea2698289a02afd9cc768581b4aa3d5f4b105"
    }
  },
  "statusCode": 200
}