{
  "cli": [
    "state-test",
    "stdin",
    "--trace",
    "--trace.nomemory",
    "--trace.nostack",
    "--trace.noreturndata",
    "--trace.noeip-3155",
    "--notime"
  ],
  "stdin": {
    "returndatacopy_following_call": {
      "env": {
        "currentBaseFee": "0x0a",
        "currentCoinbase": "0x2adc25665018aa1fe0e6bc666dac8fc2697ff9ba",
        "currentDifficulty": "0x020000",
        "currentGasLimit": "0x1a00000000",
        "currentNumber": "0x01",
        "currentRandom": "0x0000000000000000000000000000000000000000000000000000000000020000",
        "currentTimestamp": "0x03e8",
        "previousHash": "0x5e20a0453cecd065ea59c37ac63e079ee08998b6045136a8ce6635c7912ec0b6"
      },
      "post": {
        "London": [
          {
            "hash": "0x1c6dda42e80135b6d5ff1a664e6f85e8552d5c56888bb35e2e694f3829a500c7",
            "indexes": {
              "data": 0,
              "gas": 0,
              "value": 0
            },
            "logs": "0x1dcc4de8dec75d7aab85b567b6ccd41ad312451b948a7413f0a142fd40d49347",
            "txbytes": "0xf862800a850a00000000940f572e5295c57f15886f9b263e2f6d2d6c7b5ec680801ba0be56d61b678ad2c41b294c70b5213913b9a6f17753ba7aadc171c9a2474f66a8a04814800401028ca339e8af9f4a6253bddd3f9df8f1dc6da275d19862e9f28642"
          }
        ]
      },
      "pre": {
        "0x0aabbccdd5c57f15886f9b263e2f6d2d6c7b5ec6": {
          "balance": "0x00",
          "code": "0x7d111122223333444455556666777788889999aaaabbbbccccddddeeeeffff60005260206000f300",
          "nonce": "0x00",
          "storage": {
          }
        },
        "0x0f572e5295c57f15886f9b263e2f6d2d6c7b5ec6": {
          "balance": "0x00",
          "code": "0x60006000600060006000730aabbccdd5c57f15886f9b263e2f6d2d6c7b5ec6640900000000f1506020600060003e60005160005500",
          "nonce": "0x00",
          "storage": {
            "0x00": "0x01"
          }
        },
        "0xa94f5374fce5edbc8e2a8697c15331677e6ebf0b": {
          "balance": "0x6400000000",
          "code": "0x",
          "nonce": "0x00",
          "storage": {
          }
        }
      },
      "transaction": {
        "data": [
          "0x"
        ],
        "gasLimit": [
          "0x0a00000000"
        ],
        "gasPrice": "0x0a",
        "nonce": "0x00",
        "secretKey": "0x45a915e4d060149eb4365960e6a7a45f334393093061116b197e3240065ff2d8",
        "sender": "0xa94f5374fce5edbc8e2a8697c15331677e6ebf0b",
        "to": "0x0f572e5295c57f15886f9b263e2f6d2d6c7b5ec6",
        "value": [
          "0x00"
        ]
      }
    }
  },
  "stdout": [
    {"pc":0,"op":"0x60","gas":42949651960,"gasCost":3,"memSize":0,"depth":1,"refund":0,"opName":"PUSH1"},
    {"pc":2,"op":"0x60","gas":42949651957,"gasCost":3,"memSize":0,"depth":1,"refund":0,"opName":"PUSH1"},
    {"pc":4,"op":"0x60","gas":42949651954,"gasCost":3,"memSize":0,"depth":1,"refund":0,"opName":"PUSH1"},
    {"pc":6,"op":"0x60","gas":42949651951,"gasCost":3,"memSize":0,"depth":1,"refund":0,"opName":"PUSH1"},
    {"pc":8,"op":"0x60","gas":42949651948,"gasCost":3,"memSize":0,"depth":1,"refund":0,"opName":"PUSH1"},
    {"pc":10,"op":"0x73","gas":42949651945,"gasCost":3,"memSize":0,"depth":1,"refund":0,"opName":"PUSH20"},
    {"pc":31,"op":"0x64","gas":42949651942,"gasCost":3,"memSize":0,"depth":1,"refund":0,"opName":"PUSH5"},
    {"pc":37,"op":"0xf1","gas":42949651939,"gasCost":38654708264,"memSize":0,"depth":1,"refund":0,"opName":"CALL"},
    {"pc":0,"op":"0x7d","gas":38654705664,"gasCost":3,"memSize":0,"depth":2,"refund":0,"opName":"PUSH30"},
    {"pc":31,"op":"0x60","gas":38654705661,"gasCost":3,"memSize":0,"depth":2,"refund":0,"opName":"PUSH1"},
    {"pc":33,"op":"0x52","gas":38654705658,"gasCost":6,"memSize":0,"depth":2,"refund":0,"opName":"MSTORE"},
    {"pc":34,"op":"0x60","gas":38654705652,"gasCost":3,"memSize":32,"depth":2,"refund":0,"opName":"PUSH1"},
    {"pc":36,"op":"0x60","gas":38654705649,"gasCost":3,"memSize":32,"depth":2,"refund":0,"opName":"PUSH1"},
    {"pc":38,"op":"0xf3","gas":38654705646,"gasCost":0,"memSize":32,"depth":2,"refund":0,"opName":"RETURN"},
    {"pc":38,"op":"0x50","gas":42949649321,"gasCost":2,"memSize":0,"depth":1,"refund":0,"opName":"POP"},
    {"pc":39,"op":"0x60","gas":42949649319,"gasCost":3,"memSize":0,"depth":1,"refund":0,"opName":"PUSH1"},
    {"pc":41,"op":"0x60","gas":42949649316,"gasCost":3,"memSize":0,"depth":1,"refund":0,"opName":"PUSH1"},
    {"pc":43,"op":"0x60","gas":42949649313,"gasCost":3,"memSize":0,"depth":1,"refund":0,"opName":"PUSH1"},
    {"pc":45,"op":"0x3e","gas":42949649310,"gasCost":9,"memSize":0,"depth":1,"refund":0,"opName":"RETURNDATACOPY"},
    {"pc":46,"op":"0x60","gas":42949649301,"gasCost":3,"memSize":32,"depth":1,"refund":0,"opName":"PUSH1"},
    {"pc":48,"op":"0x51","gas":42949649298,"gasCost":3,"memSize":32,"depth":1,"refund":0,"opName":"MLOAD"},
    {"pc":49,"op":"0x60","gas":42949649295,"gasCost":3,"memSize":32,"depth":1,"refund":0,"opName":"PUSH1"},
    {"pc":51,"op":"0x55","gas":42949649292,"gasCost":5000,"memSize":32,"depth":1,"refund":0,"opName":"SSTORE"},
    {"pc":52,"op":"0x00","gas":42949644292,"gasCost":0,"memSize":32,"depth":1,"refund":0,"opName":"STOP"},
    {"output":"","gasUsed":28668,"test":"returndatacopy_following_call","fork":"London","d":0,"g":0,"v":0,"stateRoot":"0x1c6dda42e80135b6d5ff1a664e6f85e8552d5c56888bb35e2e694f3829a500c7","postLogsHash":"0x1dcc4de8dec75d7aab85b567b6ccd41ad312451b948a7413f0a142fd40d49347","pass":true}
  ]
}